{
  "_format": "hh-sol-artifact-1",
  "contractName": "ERC721",
  "sourceName": "contracts/ERC721.sol",
  "abi": [
    {
      "inputs": [],
      "stateMutability": "nonpayable",
      "type": "constructor"
    },
    {
      "anonymous": false,
      "inputs": [
        {
          "indexed": true,
          "internalType": "address",
          "name": "_owner",
          "type": "address"
        },
        {
          "indexed": true,
          "internalType": "address",
          "name": "_approved",
          "type": "address"
        },
        {
          "indexed": true,
          "internalType": "uint256",
          "name": "_tokenId",
          "type": "uint256"
        }
      ],
      "name": "Approval",
      "type": "event"
    },
    {
      "anonymous": false,
      "inputs": [
        {
          "indexed": true,
          "internalType": "address",
          "name": "_from",
          "type": "address"
        },
        {
          "indexed": true,
          "internalType": "address",
          "name": "_to",
          "type": "address"
        },
        {
          "indexed": true,
          "internalType": "uint256",
          "name": "_tokenId",
          "type": "uint256"
        }
      ],
      "name": "Transfer",
      "type": "event"
    },
    {
      "inputs": [
        {
          "internalType": "address",
          "name": "_to",
          "type": "address"
        },
        {
          "internalType": "uint256",
          "name": "_tokenId",
          "type": "uint256"
        }
      ],
      "name": "approve",
      "outputs": [],
      "stateMutability": "nonpayable",
      "type": "function"
    },
    {
      "inputs": [
        {
          "internalType": "address",
          "name": "_owner",
          "type": "address"
        }
      ],
      "name": "balanceOf",
      "outputs": [
        {
          "internalType": "uint256",
          "name": "",
          "type": "uint256"
        }
      ],
      "stateMutability": "view",
      "type": "function"
    },
    {
      "inputs": [
        {
          "internalType": "uint256",
          "name": "tokenId",
          "type": "uint256"
        }
      ],
      "name": "getApproved",
      "outputs": [
        {
          "internalType": "address",
          "name": "",
          "type": "address"
        }
      ],
      "stateMutability": "view",
      "type": "function"
    },
    {
      "inputs": [
        {
          "internalType": "uint256",
          "name": "tokenId",
          "type": "uint256"
        }
      ],
      "name": "ownerOf",
      "outputs": [
        {
          "internalType": "address",
          "name": "",
          "type": "address"
        }
      ],
      "stateMutability": "view",
      "type": "function"
    },
    {
      "inputs": [
        {
          "internalType": "bytes4",
          "name": "interfaceId",
          "type": "bytes4"
        }
      ],
      "name": "supportsInterface",
      "outputs": [
        {
          "internalType": "bool",
          "name": "",
          "type": "bool"
        }
      ],
      "stateMutability": "view",
      "type": "function"
    },
    {
      "inputs": [
        {
          "internalType": "address",
          "name": "_from",
          "type": "address"
        },
        {
          "internalType": "address",
          "name": "_to",
          "type": "address"
        },
        {
          "internalType": "uint256",
          "name": "_tokenId",
          "type": "uint256"
        }
      ],
      "name": "transferFrom",
      "outputs": [],
      "stateMutability": "nonpayable",
      "type": "function"
    }
  ],
  "bytecode": "0x60806040523480156200001157600080fd5b50620000437f01ffc9a7a5cef8baa21ed3c5c0d7e23accb804b619e9333b597f47a0d84076e26200010260201b60201c565b620000fc7f5af227006b8981efabb10af200ab71f08976cbce54b4c59ae5c97811d19a398c7f8c51fd5fcf1f456ec4eb0f32f68d83471264fe082fac12bcbfd2fa4be9eed6c77f22c82707ba960a14c7592ffb6b8cfaa073fed0048a84cc7fa41f6b5bd8e7f2e47f3a6eb71757dfc6e784c1459d26270140c2c147d95ca985c80026fc5301c3eca17f8a7e378434598edc36d108689a030cbc9d7d465de4f74c71bae1028eed6a881b181818186200010260201b60201c565b6200025c565b63ffffffff60e01b817bffffffffffffffffffffffffffffffffffffffffffffffffffffffff1916036200016d576040517f08c379a000000000000000000000000000000000000000000000000000000000815260040162000164906200023a565b60405180910390fd5b6001600080837bffffffffffffffffffffffffffffffffffffffffffffffffffffffff19167bffffffffffffffffffffffffffffffffffffffffffffffffffffffff1916815260200190815260200160002060006101000a81548160ff02191690831515021790555050565b600082825260208201905092915050565b7f4572726f723a20496e76616c696420696e746572666163652049640000000000600082015250565b600062000222601b83620001d9565b91506200022f82620001ea565b602082019050919050565b60006020820190508181036000830152620002558162000213565b9050919050565b611043806200026c6000396000f3fe608060405234801561001057600080fd5b50600436106100625760003560e01c806301ffc9a714610067578063081812fc14610097578063095ea7b3146100c757806323b872dd146100e35780636352211e146100ff57806370a082311461012f575b600080fd5b610081600480360381019061007c9190610935565b61015f565b60405161008e919061097d565b60405180910390f35b6100b160048036038101906100ac91906109ce565b6101c6565b6040516100be9190610a3c565b60405180910390f35b6100e160048036038101906100dc9190610a83565b610203565b005b6100fd60048036038101906100f89190610ac3565b6102fb565b005b610119600480360381019061011491906109ce565b610354565b6040516101269190610a3c565b60405180910390f35b61014960048036038101906101449190610b16565b6103d9565b6040516101569190610b52565b60405180910390f35b6000806000837bffffffffffffffffffffffffffffffffffffffffffffffffffffffff19167bffffffffffffffffffffffffffffffffffffffffffffffffffffffff1916815260200190815260200160002060009054906101000a900460ff169050919050565b60006003600083815260200190815260200160002060009054906101000a900473ffffffffffffffffffffffffffffffffffffffff169050919050565b600061020e82610354565b90508273ffffffffffffffffffffffffffffffffffffffff168173ffffffffffffffffffffffffffffffffffffffff160361027e576040517f08c379a000000000000000000000000000000000000000000000000000000000815260040161027590610bca565b60405180910390fd5b8073ffffffffffffffffffffffffffffffffffffffff163373ffffffffffffffffffffffffffffffffffffffff16146102ec576040517f08c379a00000000000000000000000000000000000000000000000000000000081526004016102e390610c5c565b60405180910390fd5b6102f68383610490565b505050565b6103053382610549565b610344576040517f08c379a000000000000000000000000000000000000000000000000000000000815260040161033b90610cee565b60405180910390fd5b61034f838383610616565b505050565b600061035f82610866565b61039e576040517f08c379a000000000000000000000000000000000000000000000000000000000815260040161039590610d5a565b60405180910390fd5b6001600083815260200190815260200160002060009054906101000a900473ffffffffffffffffffffffffffffffffffffffff169050919050565b60008073ffffffffffffffffffffffffffffffffffffffff168273ffffffffffffffffffffffffffffffffffffffff1603610449576040517f08c379a000000000000000000000000000000000000000000000000000000000815260040161044090610dc6565b60405180910390fd5b600260008373ffffffffffffffffffffffffffffffffffffffff1673ffffffffffffffffffffffffffffffffffffffff168152602001908152602001600020549050919050565b816003600083815260200190815260200160002060006101000a81548173ffffffffffffffffffffffffffffffffffffffff021916908373ffffffffffffffffffffffffffffffffffffffff160217905550808273ffffffffffffffffffffffffffffffffffffffff1661050383610354565b73ffffffffffffffffffffffffffffffffffffffff167f8c5be1e5ebec7d5bd14f71427d1e84f3dd0314c0f7b2291e5b200ac8c7c3b92560405160405180910390a45050565b600061055482610866565b610593576040517f08c379a000000000000000000000000000000000000000000000000000000000815260040161058a90610e32565b60405180910390fd5b600061059e83610354565b90508073ffffffffffffffffffffffffffffffffffffffff168473ffffffffffffffffffffffffffffffffffffffff16148061060d57508373ffffffffffffffffffffffffffffffffffffffff166105f5846101c6565b73ffffffffffffffffffffffffffffffffffffffff16145b91505092915050565b8273ffffffffffffffffffffffffffffffffffffffff1661063682610354565b73ffffffffffffffffffffffffffffffffffffffff161461068c576040517f08c379a000000000000000000000000000000000000000000000000000000000815260040161068390610ec4565b60405180910390fd5b600073ffffffffffffffffffffffffffffffffffffffff168273ffffffffffffffffffffffffffffffffffffffff16036106fb576040517f08c379a00000000000000000000000000000000000000000000000000000000081526004016106f290610f56565b60405180910390fd5b610706600082610490565b6001600260008573ffffffffffffffffffffffffffffffffffffffff1673ffffffffffffffffffffffffffffffffffffffff16815260200190815260200160002060008282546107569190610fa5565b925050819055506001600260008473ffffffffffffffffffffffffffffffffffffffff1673ffffffffffffffffffffffffffffffffffffffff16815260200190815260200160002060008282546107ad9190610fd9565b92505081905550816001600083815260200190815260200160002060006101000a81548173ffffffffffffffffffffffffffffffffffffffff021916908373ffffffffffffffffffffffffffffffffffffffff160217905550808273ffffffffffffffffffffffffffffffffffffffff168473ffffffffffffffffffffffffffffffffffffffff167fddf252ad1be2c89b69c2b068fc378daa952ba7f163c4a11628f55a4df523b3ef60405160405180910390a4505050565b6000806001600084815260200190815260200160002060009054906101000a900473ffffffffffffffffffffffffffffffffffffffff169050600073ffffffffffffffffffffffffffffffffffffffff168173ffffffffffffffffffffffffffffffffffffffff161415915050919050565b600080fd5b60007fffffffff0000000000000000000000000000000000000000000000000000000082169050919050565b610912816108dd565b811461091d57600080fd5b50565b60008135905061092f81610909565b92915050565b60006020828403121561094b5761094a6108d8565b5b600061095984828501610920565b91505092915050565b60008115159050919050565b61097781610962565b82525050565b6000602082019050610992600083018461096e565b92915050565b6000819050919050565b6109ab81610998565b81146109b657600080fd5b50565b6000813590506109c8816109a2565b92915050565b6000602082840312156109e4576109e36108d8565b5b60006109f2848285016109b9565b91505092915050565b600073ffffffffffffffffffffffffffffffffffffffff82169050919050565b6000610a26826109fb565b9050919050565b610a3681610a1b565b82525050565b6000602082019050610a516000830184610a2d565b92915050565b610a6081610a1b565b8114610a6b57600080fd5b50565b600081359050610a7d81610a57565b92915050565b60008060408385031215610a9a57610a996108d8565b5b6000610aa885828601610a6e565b9250506020610ab9858286016109b9565b9150509250929050565b600080600060608486031215610adc57610adb6108d8565b5b6000610aea86828701610a6e565b9350506020610afb86828701610a6e565b9250506040610b0c868287016109b9565b9150509250925092565b600060208284031215610b2c57610b2b6108d8565b5b6000610b3a84828501610a6e565b91505092915050565b610b4c81610998565b82525050565b6000602082019050610b676000830184610b43565b92915050565b600082825260208201905092915050565b7f4572726f723a20417070726f76616c20746f2063757272656e74206f776e6572600082015250565b6000610bb4602083610b6d565b9150610bbf82610b7e565b602082019050919050565b60006020820190508181036000830152610be381610ba7565b9050919050565b7f4572726f723a2043616c6c6572206973206e6f7420746865206f776e6572206f60008201527f662074686520746f6b656e000000000000000000000000000000000000000000602082015250565b6000610c46602b83610b6d565b9150610c5182610bea565b604082019050919050565b60006020820190508181036000830152610c7581610c39565b9050919050565b7f4552433732313a205472616e736665722063616c6c6572206973206e6569746860008201527f6572206f776e6572206e6f7220617070726f7665640000000000000000000000602082015250565b6000610cd8603583610b6d565b9150610ce382610c7c565b604082019050919050565b60006020820190508181036000830152610d0781610ccb565b9050919050565b7f4552433732313a20546f6b656e206e6f7420796574206d696e74656400000000600082015250565b6000610d44601c83610b6d565b9150610d4f82610d0e565b602082019050919050565b60006020820190508181036000830152610d7381610d37565b9050919050565b7f4552433732313a20496e76616c6964206f776e65722061646472657373000000600082015250565b6000610db0601d83610b6d565b9150610dbb82610d7a565b602082019050919050565b60006020820190508181036000830152610ddf81610da3565b9050919050565b7f4572726f723a20496e76616c696420746f6b656e496400000000000000000000600082015250565b6000610e1c601683610b6d565b9150610e2782610de6565b602082019050919050565b60006020820190508181036000830152610e4b81610e0f565b9050919050565b7f4552433732313a2053656e64657220646f6573206e6f74206f776e207468652060008201527f746f6b656e000000000000000000000000000000000000000000000000000000602082015250565b6000610eae602583610b6d565b9150610eb982610e52565b604082019050919050565b60006020820190508181036000830152610edd81610ea1565b9050919050565b7f4552433732313a20496e76616c696420726563697069656e74207a65726f206160008201527f6464726573730000000000000000000000000000000000000000000000000000602082015250565b6000610f40602683610b6d565b9150610f4b82610ee4565b604082019050919050565b60006020820190508181036000830152610f6f81610f33565b9050919050565b7f4e487b7100000000000000000000000000000000000000000000000000000000600052601160045260246000fd5b6000610fb082610998565b9150610fbb83610998565b9250828203905081811115610fd357610fd2610f76565b5b92915050565b6000610fe482610998565b9150610fef83610998565b925082820190508082111561100757611006610f76565b5b9291505056fea2646970667358221220bdcac0868b6239dc8bcbfbeaac37e0d498641d101d22d256557897796748a3fc64736f6c63430008110033",
  "linkReferences": {},
  "deployedLinkReferences": {}
}