{
  "contractName": "ERC721Connector",
  "abi": [
    {
      "inputs": [
        {
          "internalType": "string",
          "name": "name",
          "type": "string"
        },
        {
          "internalType": "string",
          "name": "symbol",
          "type": "string"
        }
      ],
      "stateMutability": "nonpayable",
      "type": "constructor"
    },
    {
      "anonymous": false,
      "inputs": [
        {
          "indexed": true,
          "internalType": "address",
          "name": "_owner",
          "type": "address"
        },
        {
          "indexed": true,
          "internalType": "address",
          "name": "_approved",
          "type": "address"
        },
        {
          "indexed": true,
          "internalType": "uint256",
          "name": "_tokenId",
          "type": "uint256"
        }
      ],
      "name": "Approval",
      "type": "event"
    },
    {
      "anonymous": false,
      "inputs": [
        {
          "indexed": true,
          "internalType": "address",
          "name": "_from",
          "type": "address"
        },
        {
          "indexed": true,
          "internalType": "address",
          "name": "_to",
          "type": "address"
        },
        {
          "indexed": true,
          "internalType": "uint256",
          "name": "_tokenId",
          "type": "uint256"
        }
      ],
      "name": "Transfer",
      "type": "event"
    },
    {
      "inputs": [
        {
          "internalType": "address",
          "name": "_to",
          "type": "address"
        },
        {
          "internalType": "uint256",
          "name": "_tokenId",
          "type": "uint256"
        }
      ],
      "name": "approve",
      "outputs": [],
      "stateMutability": "nonpayable",
      "type": "function"
    },
    {
      "inputs": [
        {
          "internalType": "address",
          "name": "_owner",
          "type": "address"
        }
      ],
      "name": "balanceOf",
      "outputs": [
        {
          "internalType": "uint256",
          "name": "",
          "type": "uint256"
        }
      ],
      "stateMutability": "view",
      "type": "function"
    },
    {
      "inputs": [
        {
          "internalType": "uint256",
          "name": "tokenId",
          "type": "uint256"
        }
      ],
      "name": "getApproved",
      "outputs": [
        {
          "internalType": "address",
          "name": "",
          "type": "address"
        }
      ],
      "stateMutability": "view",
      "type": "function"
    },
    {
      "inputs": [],
      "name": "name",
      "outputs": [
        {
          "internalType": "string",
          "name": "",
          "type": "string"
        }
      ],
      "stateMutability": "view",
      "type": "function"
    },
    {
      "inputs": [
        {
          "internalType": "uint256",
          "name": "tokenId",
          "type": "uint256"
        }
      ],
      "name": "ownerOf",
      "outputs": [
        {
          "internalType": "address",
          "name": "",
          "type": "address"
        }
      ],
      "stateMutability": "view",
      "type": "function"
    },
    {
      "inputs": [
        {
          "internalType": "bytes4",
          "name": "interfaceId",
          "type": "bytes4"
        }
      ],
      "name": "supportsInterface",
      "outputs": [
        {
          "internalType": "bool",
          "name": "",
          "type": "bool"
        }
      ],
      "stateMutability": "view",
      "type": "function"
    },
    {
      "inputs": [],
      "name": "symbol",
      "outputs": [
        {
          "internalType": "string",
          "name": "",
          "type": "string"
        }
      ],
      "stateMutability": "view",
      "type": "function"
    },
    {
      "inputs": [
        {
          "internalType": "uint256",
          "name": "_index",
          "type": "uint256"
        }
      ],
      "name": "tokenByIndex",
      "outputs": [
        {
          "internalType": "uint256",
          "name": "",
          "type": "uint256"
        }
      ],
      "stateMutability": "view",
      "type": "function"
    },
    {
      "inputs": [
        {
          "internalType": "address",
          "name": "owner",
          "type": "address"
        },
        {
          "internalType": "uint256",
          "name": "_index",
          "type": "uint256"
        }
      ],
      "name": "tokenOfOwnerByIndex",
      "outputs": [
        {
          "internalType": "uint256",
          "name": "",
          "type": "uint256"
        }
      ],
      "stateMutability": "view",
      "type": "function"
    },
    {
      "inputs": [],
      "name": "totalSupply",
      "outputs": [
        {
          "internalType": "uint256",
          "name": "",
          "type": "uint256"
        }
      ],
      "stateMutability": "view",
      "type": "function"
    },
    {
      "inputs": [
        {
          "internalType": "address",
          "name": "_from",
          "type": "address"
        },
        {
          "internalType": "address",
          "name": "_to",
          "type": "address"
        },
        {
          "internalType": "uint256",
          "name": "_tokenId",
          "type": "uint256"
        }
      ],
      "name": "transferFrom",
      "outputs": [],
      "stateMutability": "nonpayable",
      "type": "function"
    }
  ],
  "bytecode": "0x60806040523480156200001157600080fd5b5060405162001e9138038062001e91833981810160405281019062000037919062000483565b81816200006a7f01ffc9a7a5cef8baa21ed3c5c0d7e23accb804b619e9333b597f47a0d84076e26200021960201b60201c565b620000bd7f13b182f4c0e5b2efbac0efe6cf6d756c8b89f4b79c5707a043ed9ea740574ee97f7feaf19471f34a12a7eaf32d5f3090aa2260ea8624dc8a138e74e0bf0f623076186200021960201b60201c565b8160019081620000ce919062000753565b508060029081620000e0919062000753565b5050506200019c7f5af227006b8981efabb10af200ab71f08976cbce54b4c59ae5c97811d19a398c7f8c51fd5fcf1f456ec4eb0f32f68d83471264fe082fac12bcbfd2fa4be9eed6c77f22c82707ba960a14c7592ffb6b8cfaa073fed0048a84cc7fa41f6b5bd8e7f2e47f3a6eb71757dfc6e784c1459d26270140c2c147d95ca985c80026fc5301c3eca17f8a7e378434598edc36d108689a030cbc9d7d465de4f74c71bae1028eed6a881b181818186200021960201b60201c565b620002117f6da5e1284143cdd2d15038a59bde3be031250f00291d64494c12d967b3a4e0c37f8230223f691b981717299fae9549350a0d894555723531f02108b1f522c1a7977f22277f783092ff65775792475f25e3062cade605454ad8c3d14eb84bce9b927418186200021960201b60201c565b5050620008bd565b63ffffffff60e01b817bffffffffffffffffffffffffffffffffffffffffffffffffffffffff19160362000284576040517f08c379a00000000000000000000000000000000000000000000000000000000081526004016200027b906200089b565b60405180910390fd5b6001600080837bffffffffffffffffffffffffffffffffffffffffffffffffffffffff19167bffffffffffffffffffffffffffffffffffffffffffffffffffffffff1916815260200190815260200160002060006101000a81548160ff02191690831515021790555050565b6000604051905090565b600080fd5b600080fd5b600080fd5b600080fd5b6000601f19601f8301169050919050565b7f4e487b7100000000000000000000000000000000000000000000000000000000600052604160045260246000fd5b62000359826200030e565b810181811067ffffffffffffffff821117156200037b576200037a6200031f565b5b80604052505050565b600062000390620002f0565b90506200039e82826200034e565b919050565b600067ffffffffffffffff821115620003c157620003c06200031f565b5b620003cc826200030e565b9050602081019050919050565b60005b83811015620003f9578082015181840152602081019050620003dc565b60008484015250505050565b60006200041c6200041684620003a3565b62000384565b9050828152602081018484840111156200043b576200043a62000309565b5b62000448848285620003d9565b509392505050565b600082601f83011262000468576200046762000304565b5b81516200047a84826020860162000405565b91505092915050565b600080604083850312156200049d576200049c620002fa565b5b600083015167ffffffffffffffff811115620004be57620004bd620002ff565b5b620004cc8582860162000450565b925050602083015167ffffffffffffffff811115620004f057620004ef620002ff565b5b620004fe8582860162000450565b9150509250929050565b600081519050919050565b7f4e487b7100000000000000000000000000000000000000000000000000000000600052602260045260246000fd5b600060028204905060018216806200055b57607f821691505b60208210810362000571576200057062000513565b5b50919050565b60008190508160005260206000209050919050565b60006020601f8301049050919050565b600082821b905092915050565b600060088302620005db7fffffffffffffffffffffffffffffffffffffffffffffffffffffffffffffffff826200059c565b620005e786836200059c565b95508019841693508086168417925050509392505050565b6000819050919050565b6000819050919050565b6000620006346200062e6200062884620005ff565b62000609565b620005ff565b9050919050565b6000819050919050565b620006508362000613565b620006686200065f826200063b565b848454620005a9565b825550505050565b600090565b6200067f62000670565b6200068c81848462000645565b505050565b5b81811015620006b457620006a860008262000675565b60018101905062000692565b5050565b601f8211156200070357620006cd8162000577565b620006d8846200058c565b81016020851015620006e8578190505b62000700620006f7856200058c565b83018262000691565b50505b505050565b600082821c905092915050565b6000620007286000198460080262000708565b1980831691505092915050565b600062000743838362000715565b9150826002028217905092915050565b6200075e8262000508565b67ffffffffffffffff8111156200077a57620007796200031f565b5b62000786825462000542565b62000793828285620006b8565b600060209050601f831160018114620007cb5760008415620007b6578287015190505b620007c2858262000735565b86555062000832565b601f198416620007db8662000577565b60005b828110156200080557848901518255600182019150602085019450602081019050620007de565b8683101562000825578489015162000821601f89168262000715565b8355505b6001600288020188555050505b505050505050565b600082825260208201905092915050565b7f4572726f723a20496e76616c696420696e746572666163652049640000000000600082015250565b600062000883601b836200083a565b915062000890826200084b565b602082019050919050565b60006020820190508181036000830152620008b68162000874565b9050919050565b6115c480620008cd6000396000f3fe608060405234801561001057600080fd5b50600436106100a95760003560e01c806323b872dd1161007157806323b872dd146101665780632f745c59146101825780634f6ccce7146101b25780636352211e146101e257806370a082311461021257806395d89b4114610242576100a9565b806301ffc9a7146100ae57806306fdde03146100de578063081812fc146100fc578063095ea7b31461012c57806318160ddd14610148575b600080fd5b6100c860048036038101906100c39190610c88565b610260565b6040516100d59190610cd0565b60405180910390f35b6100e66102c7565b6040516100f39190610d7b565b60405180910390f35b61011660048036038101906101119190610dd3565b610359565b6040516101239190610e41565b60405180910390f35b61014660048036038101906101419190610e88565b610396565b005b61015061048e565b60405161015d9190610ed7565b60405180910390f35b610180600480360381019061017b9190610ef2565b61049b565b005b61019c60048036038101906101979190610e88565b6104f4565b6040516101a99190610ed7565b60405180910390f35b6101cc60048036038101906101c79190610dd3565b6105a4565b6040516101d99190610ed7565b60405180910390f35b6101fc60048036038101906101f79190610dd3565b610615565b6040516102099190610e41565b60405180910390f35b61022c60048036038101906102279190610f45565b61069a565b6040516102399190610ed7565b60405180910390f35b61024a610751565b6040516102579190610d7b565b60405180910390f35b6000806000837bffffffffffffffffffffffffffffffffffffffffffffffffffffffff19167bffffffffffffffffffffffffffffffffffffffffffffffffffffffff1916815260200190815260200160002060009054906101000a900460ff169050919050565b6060600180546102d690610fa1565b80601f016020809104026020016040519081016040528092919081815260200182805461030290610fa1565b801561034f5780601f106103245761010080835404028352916020019161034f565b820191906000526020600020905b81548152906001019060200180831161033257829003601f168201915b5050505050905090565b60006005600083815260200190815260200160002060009054906101000a900473ffffffffffffffffffffffffffffffffffffffff169050919050565b60006103a182610615565b90508273ffffffffffffffffffffffffffffffffffffffff168173ffffffffffffffffffffffffffffffffffffffff1603610411576040517f08c379a00000000000000000000000000000000000000000000000000000000081526004016104089061101e565b60405180910390fd5b8073ffffffffffffffffffffffffffffffffffffffff163373ffffffffffffffffffffffffffffffffffffffff161461047f576040517f08c379a0000000000000000000000000000000000000000000000000000000008152600401610476906110b0565b60405180910390fd5b61048983836107e3565b505050565b6000600680549050905090565b6104a5338261089c565b6104e4576040517f08c379a00000000000000000000000000000000000000000000000000000000081526004016104db90611142565b60405180910390fd5b6104ef838383610969565b505050565b60006104ff8361069a565b8210610540576040517f08c379a0000000000000000000000000000000000000000000000000000000008152600401610537906111ae565b60405180910390fd5b600860008473ffffffffffffffffffffffffffffffffffffffff1673ffffffffffffffffffffffffffffffffffffffff1681526020019081526020016000208281548110610591576105906111ce565b5b9060005260206000200154905092915050565b60006105ae61048e565b82106105ef576040517f08c379a00000000000000000000000000000000000000000000000000000000081526004016105e69061126f565b60405180910390fd5b60068281548110610603576106026111ce565b5b90600052602060002001549050919050565b600061062082610bb9565b61065f576040517f08c379a0000000000000000000000000000000000000000000000000000000008152600401610656906112db565b60405180910390fd5b6003600083815260200190815260200160002060009054906101000a900473ffffffffffffffffffffffffffffffffffffffff169050919050565b60008073ffffffffffffffffffffffffffffffffffffffff168273ffffffffffffffffffffffffffffffffffffffff160361070a576040517f08c379a000000000000000000000000000000000000000000000000000000000815260040161070190611347565b60405180910390fd5b600460008373ffffffffffffffffffffffffffffffffffffffff1673ffffffffffffffffffffffffffffffffffffffff168152602001908152602001600020549050919050565b60606002805461076090610fa1565b80601f016020809104026020016040519081016040528092919081815260200182805461078c90610fa1565b80156107d95780601f106107ae576101008083540402835291602001916107d9565b820191906000526020600020905b8154815290600101906020018083116107bc57829003601f168201915b5050505050905090565b816005600083815260200190815260200160002060006101000a81548173ffffffffffffffffffffffffffffffffffffffff021916908373ffffffffffffffffffffffffffffffffffffffff160217905550808273ffffffffffffffffffffffffffffffffffffffff1661085683610615565b73ffffffffffffffffffffffffffffffffffffffff167f8c5be1e5ebec7d5bd14f71427d1e84f3dd0314c0f7b2291e5b200ac8c7c3b92560405160405180910390a45050565b60006108a782610bb9565b6108e6576040517f08c379a00000000000000000000000000000000000000000000000000000000081526004016108dd906113b3565b60405180910390fd5b60006108f183610615565b90508073ffffffffffffffffffffffffffffffffffffffff168473ffffffffffffffffffffffffffffffffffffffff16148061096057508373ffffffffffffffffffffffffffffffffffffffff1661094884610359565b73ffffffffffffffffffffffffffffffffffffffff16145b91505092915050565b8273ffffffffffffffffffffffffffffffffffffffff1661098982610615565b73ffffffffffffffffffffffffffffffffffffffff16146109df576040517f08c379a00000000000000000000000000000000000000000000000000000000081526004016109d690611445565b60405180910390fd5b600073ffffffffffffffffffffffffffffffffffffffff168273ffffffffffffffffffffffffffffffffffffffff1603610a4e576040517f08c379a0000000000000000000000000000000000000000000000000000000008152600401610a45906114d7565b60405180910390fd5b610a596000826107e3565b6001600460008573ffffffffffffffffffffffffffffffffffffffff1673ffffffffffffffffffffffffffffffffffffffff1681526020019081526020016000206000828254610aa99190611526565b925050819055506001600460008473ffffffffffffffffffffffffffffffffffffffff1673ffffffffffffffffffffffffffffffffffffffff1681526020019081526020016000206000828254610b00919061155a565b92505081905550816003600083815260200190815260200160002060006101000a81548173ffffffffffffffffffffffffffffffffffffffff021916908373ffffffffffffffffffffffffffffffffffffffff160217905550808273ffffffffffffffffffffffffffffffffffffffff168473ffffffffffffffffffffffffffffffffffffffff167fddf252ad1be2c89b69c2b068fc378daa952ba7f163c4a11628f55a4df523b3ef60405160405180910390a4505050565b6000806003600084815260200190815260200160002060009054906101000a900473ffffffffffffffffffffffffffffffffffffffff169050600073ffffffffffffffffffffffffffffffffffffffff168173ffffffffffffffffffffffffffffffffffffffff161415915050919050565b600080fd5b60007fffffffff0000000000000000000000000000000000000000000000000000000082169050919050565b610c6581610c30565b8114610c7057600080fd5b50565b600081359050610c8281610c5c565b92915050565b600060208284031215610c9e57610c9d610c2b565b5b6000610cac84828501610c73565b91505092915050565b60008115159050919050565b610cca81610cb5565b82525050565b6000602082019050610ce56000830184610cc1565b92915050565b600081519050919050565b600082825260208201905092915050565b60005b83811015610d25578082015181840152602081019050610d0a565b60008484015250505050565b6000601f19601f8301169050919050565b6000610d4d82610ceb565b610d578185610cf6565b9350610d67818560208601610d07565b610d7081610d31565b840191505092915050565b60006020820190508181036000830152610d958184610d42565b905092915050565b6000819050919050565b610db081610d9d565b8114610dbb57600080fd5b50565b600081359050610dcd81610da7565b92915050565b600060208284031215610de957610de8610c2b565b5b6000610df784828501610dbe565b91505092915050565b600073ffffffffffffffffffffffffffffffffffffffff82169050919050565b6000610e2b82610e00565b9050919050565b610e3b81610e20565b82525050565b6000602082019050610e566000830184610e32565b92915050565b610e6581610e20565b8114610e7057600080fd5b50565b600081359050610e8281610e5c565b92915050565b60008060408385031215610e9f57610e9e610c2b565b5b6000610ead85828601610e73565b9250506020610ebe85828601610dbe565b9150509250929050565b610ed181610d9d565b82525050565b6000602082019050610eec6000830184610ec8565b92915050565b600080600060608486031215610f0b57610f0a610c2b565b5b6000610f1986828701610e73565b9350506020610f2a86828701610e73565b9250506040610f3b86828701610dbe565b9150509250925092565b600060208284031215610f5b57610f5a610c2b565b5b6000610f6984828501610e73565b91505092915050565b7f4e487b7100000000000000000000000000000000000000000000000000000000600052602260045260246000fd5b60006002820490506001821680610fb957607f821691505b602082108103610fcc57610fcb610f72565b5b50919050565b7f4572726f723a20417070726f76616c20746f2063757272656e74206f776e6572600082015250565b6000611008602083610cf6565b915061101382610fd2565b602082019050919050565b6000602082019050818103600083015261103781610ffb565b9050919050565b7f4572726f723a2043616c6c6572206973206e6f7420746865206f776e6572206f60008201527f662074686520746f6b656e000000000000000000000000000000000000000000602082015250565b600061109a602b83610cf6565b91506110a58261103e565b604082019050919050565b600060208201905081810360008301526110c98161108d565b9050919050565b7f4552433732313a205472616e736665722063616c6c6572206973206e6569746860008201527f6572206f776e6572206e6f7220617070726f7665640000000000000000000000602082015250565b600061112c603583610cf6565b9150611137826110d0565b604082019050919050565b6000602082019050818103600083015261115b8161111f565b9050919050565b7f4572726f723a204f776e657220696e646578206f7574206f6620626f756e6473600082015250565b6000611198602083610cf6565b91506111a382611162565b602082019050919050565b600060208201905081810360008301526111c78161118b565b9050919050565b7f4e487b7100000000000000000000000000000000000000000000000000000000600052603260045260246000fd5b7f4572726f723a20476c6f62616c20696e646578206f7574206f6620626f756e6460008201527f7300000000000000000000000000000000000000000000000000000000000000602082015250565b6000611259602183610cf6565b9150611264826111fd565b604082019050919050565b600060208201905081810360008301526112888161124c565b9050919050565b7f4552433732313a20546f6b656e206e6f7420796574206d696e74656400000000600082015250565b60006112c5601c83610cf6565b91506112d08261128f565b602082019050919050565b600060208201905081810360008301526112f4816112b8565b9050919050565b7f4552433732313a20496e76616c6964206f776e65722061646472657373000000600082015250565b6000611331601d83610cf6565b915061133c826112fb565b602082019050919050565b6000602082019050818103600083015261136081611324565b9050919050565b7f4572726f723a20496e76616c696420746f6b656e496400000000000000000000600082015250565b600061139d601683610cf6565b91506113a882611367565b602082019050919050565b600060208201905081810360008301526113cc81611390565b9050919050565b7f4552433732313a2053656e64657220646f6573206e6f74206f776e207468652060008201527f746f6b656e000000000000000000000000000000000000000000000000000000602082015250565b600061142f602583610cf6565b915061143a826113d3565b604082019050919050565b6000602082019050818103600083015261145e81611422565b9050919050565b7f4552433732313a20496e76616c696420726563697069656e74207a65726f206160008201527f6464726573730000000000000000000000000000000000000000000000000000602082015250565b60006114c1602683610cf6565b91506114cc82611465565b604082019050919050565b600060208201905081810360008301526114f0816114b4565b9050919050565b7f4e487b7100000000000000000000000000000000000000000000000000000000600052601160045260246000fd5b600061153182610d9d565b915061153c83610d9d565b9250828203905081811115611554576115536114f7565b5b92915050565b600061156582610d9d565b915061157083610d9d565b9250828201905080821115611588576115876114f7565b5b9291505056fea2646970667358221220e93b60085dd597bd3476460ba45b155ac8148c924f548838c2065408523d616964736f6c63430008110033",
  "immutableReferences": {},
  "source": "// SPDX-License-Identifier: MIT\r\npragma solidity ^0.8.0;\r\n\r\nimport './ERC721Metadata.sol';\r\nimport './ERC721Enumerable.sol';\r\n\r\ncontract ERC721Connector is ERC721Metadata, ERC721Enumerable {\r\n\r\n    constructor(string memory name, string memory symbol) ERC721Metadata(name, symbol) {\r\n        \r\n    }\r\n}",
  "sourcePath": "D:\\Anish\\Projects\\MyProjects\\NFTMarketplace\\src\\contracts\\ERC721Connector.sol",
  "compiler": {
    "name": "solc",
    "version": "0.8.17+commit.8df45f5f.Emscripten.clang"
  },
  "schemaVersion": "3.4.10",
  "updatedAt": "2022-12-22T03:12:08.005Z",
  "devdoc": {
    "kind": "dev",
    "methods": {
      "balanceOf(address)": {
        "details": "NFTs assigned to the zero address are considered invalid, and this  function throws for queries about the zero address.",
        "params": {
          "_owner": "An address for whom to query the balance"
        },
        "returns": {
          "_0": "The number of NFTs owned by `_owner`, possibly zero"
        }
      },
      "tokenByIndex(uint256)": {
        "details": "Throws if `_index` >= `totalSupply()`.",
        "params": {
          "_index": "A counter less than `totalSupply()`"
        },
        "returns": {
          "_0": "The token identifier for the `_index`th NFT,  (sort order not specified)"
        }
      },
      "totalSupply()": {
        "returns": {
          "_0": "A count of valid NFTs tracked by this contract, where each one of  them has an assigned and queryable owner not equal to the zero address"
        }
      },
      "transferFrom(address,address,uint256)": {
        "details": "Throws unless `msg.sender` is the current owner, an authorized  operator, or the approved address for this NFT. Throws if `_from` is  not the current owner. Throws if `_to` is the zero address. Throws if  `_tokenId` is not a valid NFT.",
        "params": {
          "_from": "The current owner of the NFT",
          "_to": "The new owner",
          "_tokenId": "The NFT to transfer"
        }
      }
    },
    "version": 1
  },
  "userdoc": {
    "kind": "user",
    "methods": {
      "balanceOf(address)": {
        "notice": "Count all NFTs assigned to an owner"
      },
      "name()": {
        "notice": "A descriptive name for a collection of NFTs in this contract"
      },
      "symbol()": {
        "notice": "An abbreviated name for NFTs in this contract"
      },
      "tokenByIndex(uint256)": {
        "notice": "Enumerate valid NFTs"
      },
      "totalSupply()": {
        "notice": "Count NFTs tracked by this contract"
      },
      "transferFrom(address,address,uint256)": {
        "notice": "Transfer ownership of an NFT -- THE CALLER IS RESPONSIBLE  TO CONFIRM THAT `_to` IS CAPABLE OF RECEIVING NFTS OR ELSE  THEY MAY BE PERMANENTLY LOST"
      }
    },
    "version": 1
  }
}