{
  "contractName": "ERC721Enumerable",
  "abi": [
    {
      "inputs": [],
      "stateMutability": "nonpayable",
      "type": "constructor"
    },
    {
      "anonymous": false,
      "inputs": [
        {
          "indexed": true,
          "internalType": "address",
          "name": "_owner",
          "type": "address"
        },
        {
          "indexed": true,
          "internalType": "address",
          "name": "_approved",
          "type": "address"
        },
        {
          "indexed": true,
          "internalType": "uint256",
          "name": "_tokenId",
          "type": "uint256"
        }
      ],
      "name": "Approval",
      "type": "event"
    },
    {
      "anonymous": false,
      "inputs": [
        {
          "indexed": true,
          "internalType": "address",
          "name": "_from",
          "type": "address"
        },
        {
          "indexed": true,
          "internalType": "address",
          "name": "_to",
          "type": "address"
        },
        {
          "indexed": true,
          "internalType": "uint256",
          "name": "_tokenId",
          "type": "uint256"
        }
      ],
      "name": "Transfer",
      "type": "event"
    },
    {
      "inputs": [
        {
          "internalType": "address",
          "name": "_to",
          "type": "address"
        },
        {
          "internalType": "uint256",
          "name": "_tokenId",
          "type": "uint256"
        }
      ],
      "name": "approve",
      "outputs": [],
      "stateMutability": "nonpayable",
      "type": "function"
    },
    {
      "inputs": [
        {
          "internalType": "address",
          "name": "_owner",
          "type": "address"
        }
      ],
      "name": "balanceOf",
      "outputs": [
        {
          "internalType": "uint256",
          "name": "",
          "type": "uint256"
        }
      ],
      "stateMutability": "view",
      "type": "function"
    },
    {
      "inputs": [
        {
          "internalType": "uint256",
          "name": "tokenId",
          "type": "uint256"
        }
      ],
      "name": "getApproved",
      "outputs": [
        {
          "internalType": "address",
          "name": "",
          "type": "address"
        }
      ],
      "stateMutability": "view",
      "type": "function"
    },
    {
      "inputs": [
        {
          "internalType": "uint256",
          "name": "tokenId",
          "type": "uint256"
        }
      ],
      "name": "ownerOf",
      "outputs": [
        {
          "internalType": "address",
          "name": "",
          "type": "address"
        }
      ],
      "stateMutability": "view",
      "type": "function"
    },
    {
      "inputs": [
        {
          "internalType": "bytes4",
          "name": "interfaceId",
          "type": "bytes4"
        }
      ],
      "name": "supportsInterface",
      "outputs": [
        {
          "internalType": "bool",
          "name": "",
          "type": "bool"
        }
      ],
      "stateMutability": "view",
      "type": "function"
    },
    {
      "inputs": [
        {
          "internalType": "address",
          "name": "_from",
          "type": "address"
        },
        {
          "internalType": "address",
          "name": "_to",
          "type": "address"
        },
        {
          "internalType": "uint256",
          "name": "_tokenId",
          "type": "uint256"
        }
      ],
      "name": "transferFrom",
      "outputs": [],
      "stateMutability": "nonpayable",
      "type": "function"
    },
    {
      "inputs": [],
      "name": "totalSupply",
      "outputs": [
        {
          "internalType": "uint256",
          "name": "",
          "type": "uint256"
        }
      ],
      "stateMutability": "view",
      "type": "function"
    },
    {
      "inputs": [
        {
          "internalType": "uint256",
          "name": "_index",
          "type": "uint256"
        }
      ],
      "name": "tokenByIndex",
      "outputs": [
        {
          "internalType": "uint256",
          "name": "",
          "type": "uint256"
        }
      ],
      "stateMutability": "view",
      "type": "function"
    },
    {
      "inputs": [
        {
          "internalType": "address",
          "name": "owner",
          "type": "address"
        },
        {
          "internalType": "uint256",
          "name": "_index",
          "type": "uint256"
        }
      ],
      "name": "tokenOfOwnerByIndex",
      "outputs": [
        {
          "internalType": "uint256",
          "name": "",
          "type": "uint256"
        }
      ],
      "stateMutability": "view",
      "type": "function"
    }
  ],
  "bytecode": "0x60806040523480156200001157600080fd5b50620000437f01ffc9a7a5cef8baa21ed3c5c0d7e23accb804b619e9333b597f47a0d84076e26200017760201b60201c565b620000fc7f5af227006b8981efabb10af200ab71f08976cbce54b4c59ae5c97811d19a398c7f8c51fd5fcf1f456ec4eb0f32f68d83471264fe082fac12bcbfd2fa4be9eed6c77f22c82707ba960a14c7592ffb6b8cfaa073fed0048a84cc7fa41f6b5bd8e7f2e47f3a6eb71757dfc6e784c1459d26270140c2c147d95ca985c80026fc5301c3eca17f8a7e378434598edc36d108689a030cbc9d7d465de4f74c71bae1028eed6a881b181818186200017760201b60201c565b620001717f6da5e1284143cdd2d15038a59bde3be031250f00291d64494c12d967b3a4e0c37f8230223f691b981717299fae9549350a0d894555723531f02108b1f522c1a7977f22277f783092ff65775792475f25e3062cade605454ad8c3d14eb84bce9b927418186200017760201b60201c565b620002d1565b63ffffffff60e01b817bffffffffffffffffffffffffffffffffffffffffffffffffffffffff191603620001e2576040517f08c379a0000000000000000000000000000000000000000000000000000000008152600401620001d990620002af565b60405180910390fd5b6001600080837bffffffffffffffffffffffffffffffffffffffffffffffffffffffff19167bffffffffffffffffffffffffffffffffffffffffffffffffffffffff1916815260200190815260200160002060006101000a81548160ff02191690831515021790555050565b600082825260208201905092915050565b7f4572726f723a20496e76616c696420696e746572666163652049640000000000600082015250565b600062000297601b836200024e565b9150620002a4826200025f565b602082019050919050565b60006020820190508181036000830152620002ca8162000288565b9050919050565b61134d80620002e16000396000f3fe608060405234801561001057600080fd5b50600436106100935760003560e01c806323b872dd1161006657806323b872dd146101325780632f745c591461014e5780634f6ccce71461017e5780636352211e146101ae57806370a08231146101de57610093565b806301ffc9a714610098578063081812fc146100c8578063095ea7b3146100f857806318160ddd14610114575b600080fd5b6100b260048036038101906100ad9190610b12565b61020e565b6040516100bf9190610b5a565b60405180910390f35b6100e260048036038101906100dd9190610bab565b610275565b6040516100ef9190610c19565b60405180910390f35b610112600480360381019061010d9190610c60565b6102b2565b005b61011c6103aa565b6040516101299190610caf565b60405180910390f35b61014c60048036038101906101479190610cca565b6103b7565b005b61016860048036038101906101639190610c60565b610410565b6040516101759190610caf565b60405180910390f35b61019860048036038101906101939190610bab565b6104c0565b6040516101a59190610caf565b60405180910390f35b6101c860048036038101906101c39190610bab565b610531565b6040516101d59190610c19565b60405180910390f35b6101f860048036038101906101f39190610d1d565b6105b6565b6040516102059190610caf565b60405180910390f35b6000806000837bffffffffffffffffffffffffffffffffffffffffffffffffffffffff19167bffffffffffffffffffffffffffffffffffffffffffffffffffffffff1916815260200190815260200160002060009054906101000a900460ff169050919050565b60006003600083815260200190815260200160002060009054906101000a900473ffffffffffffffffffffffffffffffffffffffff169050919050565b60006102bd82610531565b90508273ffffffffffffffffffffffffffffffffffffffff168173ffffffffffffffffffffffffffffffffffffffff160361032d576040517f08c379a000000000000000000000000000000000000000000000000000000000815260040161032490610da7565b60405180910390fd5b8073ffffffffffffffffffffffffffffffffffffffff163373ffffffffffffffffffffffffffffffffffffffff161461039b576040517f08c379a000000000000000000000000000000000000000000000000000000000815260040161039290610e39565b60405180910390fd5b6103a5838361066d565b505050565b6000600480549050905090565b6103c13382610726565b610400576040517f08c379a00000000000000000000000000000000000000000000000000000000081526004016103f790610ecb565b60405180910390fd5b61040b8383836107f3565b505050565b600061041b836105b6565b821061045c576040517f08c379a000000000000000000000000000000000000000000000000000000000815260040161045390610f37565b60405180910390fd5b600660008473ffffffffffffffffffffffffffffffffffffffff1673ffffffffffffffffffffffffffffffffffffffff16815260200190815260200160002082815481106104ad576104ac610f57565b5b9060005260206000200154905092915050565b60006104ca6103aa565b821061050b576040517f08c379a000000000000000000000000000000000000000000000000000000000815260040161050290610ff8565b60405180910390fd5b6004828154811061051f5761051e610f57565b5b90600052602060002001549050919050565b600061053c82610a43565b61057b576040517f08c379a000000000000000000000000000000000000000000000000000000000815260040161057290611064565b60405180910390fd5b6001600083815260200190815260200160002060009054906101000a900473ffffffffffffffffffffffffffffffffffffffff169050919050565b60008073ffffffffffffffffffffffffffffffffffffffff168273ffffffffffffffffffffffffffffffffffffffff1603610626576040517f08c379a000000000000000000000000000000000000000000000000000000000815260040161061d906110d0565b60405180910390fd5b600260008373ffffffffffffffffffffffffffffffffffffffff1673ffffffffffffffffffffffffffffffffffffffff168152602001908152602001600020549050919050565b816003600083815260200190815260200160002060006101000a81548173ffffffffffffffffffffffffffffffffffffffff021916908373ffffffffffffffffffffffffffffffffffffffff160217905550808273ffffffffffffffffffffffffffffffffffffffff166106e083610531565b73ffffffffffffffffffffffffffffffffffffffff167f8c5be1e5ebec7d5bd14f71427d1e84f3dd0314c0f7b2291e5b200ac8c7c3b92560405160405180910390a45050565b600061073182610a43565b610770576040517f08c379a00000000000000000000000000000000000000000000000000000000081526004016107679061113c565b60405180910390fd5b600061077b83610531565b90508073ffffffffffffffffffffffffffffffffffffffff168473ffffffffffffffffffffffffffffffffffffffff1614806107ea57508373ffffffffffffffffffffffffffffffffffffffff166107d284610275565b73ffffffffffffffffffffffffffffffffffffffff16145b91505092915050565b8273ffffffffffffffffffffffffffffffffffffffff1661081382610531565b73ffffffffffffffffffffffffffffffffffffffff1614610869576040517f08c379a0000000000000000000000000000000000000000000000000000000008152600401610860906111ce565b60405180910390fd5b600073ffffffffffffffffffffffffffffffffffffffff168273ffffffffffffffffffffffffffffffffffffffff16036108d8576040517f08c379a00000000000000000000000000000000000000000000000000000000081526004016108cf90611260565b60405180910390fd5b6108e360008261066d565b6001600260008573ffffffffffffffffffffffffffffffffffffffff1673ffffffffffffffffffffffffffffffffffffffff168152602001908152602001600020600082825461093391906112af565b925050819055506001600260008473ffffffffffffffffffffffffffffffffffffffff1673ffffffffffffffffffffffffffffffffffffffff168152602001908152602001600020600082825461098a91906112e3565b92505081905550816001600083815260200190815260200160002060006101000a81548173ffffffffffffffffffffffffffffffffffffffff021916908373ffffffffffffffffffffffffffffffffffffffff160217905550808273ffffffffffffffffffffffffffffffffffffffff168473ffffffffffffffffffffffffffffffffffffffff167fddf252ad1be2c89b69c2b068fc378daa952ba7f163c4a11628f55a4df523b3ef60405160405180910390a4505050565b6000806001600084815260200190815260200160002060009054906101000a900473ffffffffffffffffffffffffffffffffffffffff169050600073ffffffffffffffffffffffffffffffffffffffff168173ffffffffffffffffffffffffffffffffffffffff161415915050919050565b600080fd5b60007fffffffff0000000000000000000000000000000000000000000000000000000082169050919050565b610aef81610aba565b8114610afa57600080fd5b50565b600081359050610b0c81610ae6565b92915050565b600060208284031215610b2857610b27610ab5565b5b6000610b3684828501610afd565b91505092915050565b60008115159050919050565b610b5481610b3f565b82525050565b6000602082019050610b6f6000830184610b4b565b92915050565b6000819050919050565b610b8881610b75565b8114610b9357600080fd5b50565b600081359050610ba581610b7f565b92915050565b600060208284031215610bc157610bc0610ab5565b5b6000610bcf84828501610b96565b91505092915050565b600073ffffffffffffffffffffffffffffffffffffffff82169050919050565b6000610c0382610bd8565b9050919050565b610c1381610bf8565b82525050565b6000602082019050610c2e6000830184610c0a565b92915050565b610c3d81610bf8565b8114610c4857600080fd5b50565b600081359050610c5a81610c34565b92915050565b60008060408385031215610c7757610c76610ab5565b5b6000610c8585828601610c4b565b9250506020610c9685828601610b96565b9150509250929050565b610ca981610b75565b82525050565b6000602082019050610cc46000830184610ca0565b92915050565b600080600060608486031215610ce357610ce2610ab5565b5b6000610cf186828701610c4b565b9350506020610d0286828701610c4b565b9250506040610d1386828701610b96565b9150509250925092565b600060208284031215610d3357610d32610ab5565b5b6000610d4184828501610c4b565b91505092915050565b600082825260208201905092915050565b7f4572726f723a20417070726f76616c20746f2063757272656e74206f776e6572600082015250565b6000610d91602083610d4a565b9150610d9c82610d5b565b602082019050919050565b60006020820190508181036000830152610dc081610d84565b9050919050565b7f4572726f723a2043616c6c6572206973206e6f7420746865206f776e6572206f60008201527f662074686520746f6b656e000000000000000000000000000000000000000000602082015250565b6000610e23602b83610d4a565b9150610e2e82610dc7565b604082019050919050565b60006020820190508181036000830152610e5281610e16565b9050919050565b7f4552433732313a205472616e736665722063616c6c6572206973206e6569746860008201527f6572206f776e6572206e6f7220617070726f7665640000000000000000000000602082015250565b6000610eb5603583610d4a565b9150610ec082610e59565b604082019050919050565b60006020820190508181036000830152610ee481610ea8565b9050919050565b7f4572726f723a204f776e657220696e646578206f7574206f6620626f756e6473600082015250565b6000610f21602083610d4a565b9150610f2c82610eeb565b602082019050919050565b60006020820190508181036000830152610f5081610f14565b9050919050565b7f4e487b7100000000000000000000000000000000000000000000000000000000600052603260045260246000fd5b7f4572726f723a20476c6f62616c20696e646578206f7574206f6620626f756e6460008201527f7300000000000000000000000000000000000000000000000000000000000000602082015250565b6000610fe2602183610d4a565b9150610fed82610f86565b604082019050919050565b6000602082019050818103600083015261101181610fd5565b9050919050565b7f4552433732313a20546f6b656e206e6f7420796574206d696e74656400000000600082015250565b600061104e601c83610d4a565b915061105982611018565b602082019050919050565b6000602082019050818103600083015261107d81611041565b9050919050565b7f4552433732313a20496e76616c6964206f776e65722061646472657373000000600082015250565b60006110ba601d83610d4a565b91506110c582611084565b602082019050919050565b600060208201905081810360008301526110e9816110ad565b9050919050565b7f4572726f723a20496e76616c696420746f6b656e496400000000000000000000600082015250565b6000611126601683610d4a565b9150611131826110f0565b602082019050919050565b6000602082019050818103600083015261115581611119565b9050919050565b7f4552433732313a2053656e64657220646f6573206e6f74206f776e207468652060008201527f746f6b656e000000000000000000000000000000000000000000000000000000602082015250565b60006111b8602583610d4a565b91506111c38261115c565b604082019050919050565b600060208201905081810360008301526111e7816111ab565b9050919050565b7f4552433732313a20496e76616c696420726563697069656e74207a65726f206160008201527f6464726573730000000000000000000000000000000000000000000000000000602082015250565b600061124a602683610d4a565b9150611255826111ee565b604082019050919050565b600060208201905081810360008301526112798161123d565b9050919050565b7f4e487b7100000000000000000000000000000000000000000000000000000000600052601160045260246000fd5b60006112ba82610b75565b91506112c583610b75565b92508282039050818111156112dd576112dc611280565b5b92915050565b60006112ee82610b75565b91506112f983610b75565b925082820190508082111561131157611310611280565b5b9291505056fea26469706673582212202ae3cd3535501800f8b538f33f79ad1e0baa21eb70ba0704300802a4378eb6e764736f6c63430008110033",
  "immutableReferences": {},
  "source": "// SPDX-License-Identifier: MIT\r\npragma solidity ^0.8.0;\r\n\r\nimport './ERC721.sol';\r\nimport './interfaces/IERC721Enumerable.sol';\r\n\r\ncontract ERC721Enumerable is ERC721, IERC721Enumerable {\r\n\r\n    uint256[] private _allTokens;                                   // list of all tokenIds that have been minted\r\n    mapping(uint256 => uint256) private _allTokensIndex;            // map of tokenIds to their corresponding index\r\n    mapping(address => uint256[]) private _ownedTokens;             // map of owner to list of tokens owned by that owner\r\n    mapping(uint256 => uint256) private _ownedTokensIndex;          // map of tokenIds to their corresponding index owned by that particular owner\r\n\r\n    constructor() {\r\n        registerInterface(bytes4(keccak256('tokenSupply(bytes4)') ^ keccak256('tokenOfOwnerByIndex(bytes4)') ^ \r\n            keccak256('tokenByIndex(bytes4)')));\r\n    }\r\n\r\n    // function to maintain a list of tokens minted and index of each token stored\r\n    function _maintainTokenInfo(uint256 tokenId) private {\r\n        _allTokens.push(tokenId);\r\n        _allTokensIndex[tokenId] = _allTokens.length - 1;\r\n    }\r\n\r\n    // function to maintain the list of tokens owned by particular owner\r\n    function _mainOwnerTokenInfo(address to, uint256 tokenId) private {\r\n        _ownedTokens[to].push(tokenId);\r\n        _ownedTokensIndex[tokenId] = _ownedTokens[to].length - 1;\r\n    }\r\n\r\n    // function to return the total token supply\r\n    function totalSupply() public override view returns(uint256) {\r\n        return _allTokens.length;\r\n    }\r\n\r\n    // function to get tokenId by index\r\n    function tokenByIndex(uint256 _index) public override view returns(uint256) {\r\n        require(_index < totalSupply(), 'Error: Global index out of bounds');\r\n        return _allTokens[_index];\r\n    }\r\n\r\n    // function to get tokenId by index as owned by that owner\r\n    function tokenOfOwnerByIndex(address owner, uint256 _index) public override view returns(uint256) {\r\n        require(_index < balanceOf(owner), 'Error: Owner index out of bounds');\r\n        return _ownedTokens[owner][_index];\r\n    }\r\n\r\n    // function to mint tokens (overrides the mint definition in ERC721.sol contract)\r\n    function _mint(address to, uint256 tokenId) internal override(ERC721) {\r\n        super._mint(to, tokenId);\r\n        _maintainTokenInfo(tokenId);\r\n        _mainOwnerTokenInfo(to, tokenId);\r\n    }\r\n}",
  "sourcePath": "D:\\Anish\\Projects\\MyProjects\\NFTMarketplace\\src\\contracts\\ERC721Enumerable.sol",
  "compiler": {
    "name": "solc",
    "version": "0.8.17+commit.8df45f5f.Emscripten.clang"
  },
  "schemaVersion": "3.4.10",
  "updatedAt": "2022-12-22T03:12:08.022Z",
  "devdoc": {
    "kind": "dev",
    "methods": {
      "balanceOf(address)": {
        "details": "NFTs assigned to the zero address are considered invalid, and this  function throws for queries about the zero address.",
        "params": {
          "_owner": "An address for whom to query the balance"
        },
        "returns": {
          "_0": "The number of NFTs owned by `_owner`, possibly zero"
        }
      },
      "tokenByIndex(uint256)": {
        "details": "Throws if `_index` >= `totalSupply()`.",
        "params": {
          "_index": "A counter less than `totalSupply()`"
        },
        "returns": {
          "_0": "The token identifier for the `_index`th NFT,  (sort order not specified)"
        }
      },
      "totalSupply()": {
        "returns": {
          "_0": "A count of valid NFTs tracked by this contract, where each one of  them has an assigned and queryable owner not equal to the zero address"
        }
      },
      "transferFrom(address,address,uint256)": {
        "details": "Throws unless `msg.sender` is the current owner, an authorized  operator, or the approved address for this NFT. Throws if `_from` is  not the current owner. Throws if `_to` is the zero address. Throws if  `_tokenId` is not a valid NFT.",
        "params": {
          "_from": "The current owner of the NFT",
          "_to": "The new owner",
          "_tokenId": "The NFT to transfer"
        }
      }
    },
    "version": 1
  },
  "userdoc": {
    "kind": "user",
    "methods": {
      "balanceOf(address)": {
        "notice": "Count all NFTs assigned to an owner"
      },
      "tokenByIndex(uint256)": {
        "notice": "Enumerate valid NFTs"
      },
      "totalSupply()": {
        "notice": "Count NFTs tracked by this contract"
      },
      "transferFrom(address,address,uint256)": {
        "notice": "Transfer ownership of an NFT -- THE CALLER IS RESPONSIBLE  TO CONFIRM THAT `_to` IS CAPABLE OF RECEIVING NFTS OR ELSE  THEY MAY BE PERMANENTLY LOST"
      }
    },
    "version": 1
  }
}